{
  "contractName": "DIV",
  "abi": [
    {
      "inputs": [
        {
          "internalType": "uint256",
          "name": "_a",
          "type": "uint256"
        },
        {
          "internalType": "uint256",
          "name": "_b",
          "type": "uint256"
        }
      ],
      "name": "div",
      "outputs": [
        {
          "internalType": "uint256",
          "name": "",
          "type": "uint256"
        }
      ],
      "stateMutability": "pure",
      "type": "function"
    }
  ],
  "bytecode": "0x608060405234801561001057600080fd5b506101b1806100206000396000f3fe608060405234801561001057600080fd5b506004361061002b5760003560e01c8063a391c15b14610030575b600080fd5b61004a600480360381019061004591906100b1565b610060565b6040516100579190610100565b60405180910390f35b6000818361006e919061014a565b905092915050565b600080fd5b6000819050919050565b61008e8161007b565b811461009957600080fd5b50565b6000813590506100ab81610085565b92915050565b600080604083850312156100c8576100c7610076565b5b60006100d68582860161009c565b92505060206100e78582860161009c565b9150509250929050565b6100fa8161007b565b82525050565b600060208201905061011560008301846100f1565b92915050565b7f4e487b7100000000000000000000000000000000000000000000000000000000600052601260045260246000fd5b60006101558261007b565b91506101608361007b565b9250826101705761016f61011b565b5b82820490509291505056fea2646970667358221220750f348134b808e096e2241abacfaa35ea73267f9a01ef8f10d759febb9462dd64736f6c63430008130033",
  "immutableReferences": {},
  "source": "// SPDX-License-Identifier: MIT\r\npragma solidity ^0.8.19;\r\n\r\ncontract MUL {\r\n  uint public b =15;\r\n  function mul(uint _a, uint _b) public pure returns(uint) {\r\n    return _a*_b;\r\n  }\r\n\r\n  function setB(uint _b) public{\r\n    b = _b;\r\n  }\r\n}\r\n\r\ncontract DIV {\r\n  function div(uint _a, uint _b) public pure returns(uint) {\r\n    return _a/_b;\r\n  }\r\n\r\n}\r\n",
  "sourcePath": "C:\\Users\\g9h22\\OneDrive\\바탕 화면\\class\\LikeLion\\0608\\contracts\\MD.sol",
  "compiler": {
    "name": "solc",
    "version": "0.8.19+commit.7dd6d404.Emscripten.clang"
  },
  "schemaVersion": "3.4.14",
  "updatedAt": "2023-06-20T13:41:38.722Z",
  "devdoc": {
    "kind": "dev",
    "methods": {},
    "version": 1
  },
  "userdoc": {
    "kind": "user",
    "methods": {},
    "version": 1
  }
}