{
  "contractName": "AAA",
  "abi": [
    {
      "inputs": [],
      "name": "a",
      "outputs": [
        {
          "internalType": "uint256",
          "name": "",
          "type": "uint256"
        }
      ],
      "stateMutability": "view",
      "type": "function",
      "constant": true
    },
    {
      "inputs": [
        {
          "internalType": "uint256",
          "name": "_a",
          "type": "uint256"
        }
      ],
      "name": "setA",
      "outputs": [],
      "stateMutability": "nonpayable",
      "type": "function"
    },
    {
      "inputs": [
        {
          "internalType": "uint256",
          "name": "_a",
          "type": "uint256"
        },
        {
          "internalType": "uint256",
          "name": "_b",
          "type": "uint256"
        }
      ],
      "name": "add",
      "outputs": [
        {
          "internalType": "uint256",
          "name": "",
          "type": "uint256"
        }
      ],
      "stateMutability": "pure",
      "type": "function",
      "constant": true
    }
  ],
  "bytecode": "0x6080604052606460005534801561001557600080fd5b50610241806100256000396000f3fe608060405234801561001057600080fd5b50600436106100415760003560e01c80630dbe671f14610046578063771602f714610064578063ee919d5014610094575b600080fd5b61004e6100b0565b60405161005b91906100ef565b60405180910390f35b61007e6004803603810190610079919061013b565b6100b6565b60405161008b91906100ef565b60405180910390f35b6100ae60048036038101906100a9919061017b565b6100cc565b005b60005481565b600081836100c491906101d7565b905092915050565b8060008190555050565b6000819050919050565b6100e9816100d6565b82525050565b600060208201905061010460008301846100e0565b92915050565b600080fd5b610118816100d6565b811461012357600080fd5b50565b6000813590506101358161010f565b92915050565b600080604083850312156101525761015161010a565b5b600061016085828601610126565b925050602061017185828601610126565b9150509250929050565b6000602082840312156101915761019061010a565b5b600061019f84828501610126565b91505092915050565b7f4e487b7100000000000000000000000000000000000000000000000000000000600052601160045260246000fd5b60006101e2826100d6565b91506101ed836100d6565b9250828201905080821115610205576102046101a8565b5b9291505056fea2646970667358221220db7ad99a66c76c1ed2eb5df1ee0689debfa6493fc9c7f1da7be4e1535a26f70964736f6c63430008130033",
  "immutableReferences": {},
  "source": "// SPDX-License-Identifier: MIT\npragma solidity ^0.8.19;\n\ncontract AAA {\n  uint public a = 100;\n\n  function setA(uint _a) public {\n    a = _a;\n  }\n\n  function add(uint _a, uint _b) public pure returns(uint) {\n    return _a+_b;\n  }\n}",
  "sourcePath": "C:\\Users\\g9h22\\OneDrive\\ \\class\\LikeLion\\practice\\contracts\\A.sol",
  "compiler": {
    "name": "solc",
    "version": "0.8.19+commit.7dd6d404.Emscripten.clang"
  },
  "schemaVersion": "3.4.14",
  "updatedAt": "2023-06-20T13:26:51.094Z",
  "networkType": "ethereum",
  "devdoc": {
    "kind": "dev",
    "methods": {},
    "version": 1
  },
  "userdoc": {
    "kind": "user",
    "methods": {},
    "version": 1
  }
}