{
  "contractName": "MUL",
  "abi": [
    {
      "inputs": [],
      "name": "b",
      "outputs": [
        {
          "internalType": "uint256",
          "name": "",
          "type": "uint256"
        }
      ],
      "stateMutability": "view",
      "type": "function"
    },
    {
      "inputs": [
        {
          "internalType": "uint256",
          "name": "_a",
          "type": "uint256"
        },
        {
          "internalType": "uint256",
          "name": "_b",
          "type": "uint256"
        }
      ],
      "name": "mul",
      "outputs": [
        {
          "internalType": "uint256",
          "name": "",
          "type": "uint256"
        }
      ],
      "stateMutability": "pure",
      "type": "function"
    },
    {
      "inputs": [
        {
          "internalType": "uint256",
          "name": "_b",
          "type": "uint256"
        }
      ],
      "name": "setB",
      "outputs": [],
      "stateMutability": "nonpayable",
      "type": "function"
    }
  ],
  "bytecode": "0x6080604052600f60005534801561001557600080fd5b5061024f806100256000396000f3fe608060405234801561001057600080fd5b50600436106100415760003560e01c806309cdcf9b146100465780634df7e3d014610062578063c8a4ac9c14610080575b600080fd5b610060600480360381019061005b9190610111565b6100b0565b005b61006a6100ba565b604051610077919061014d565b60405180910390f35b61009a60048036038101906100959190610168565b6100c0565b6040516100a7919061014d565b60405180910390f35b8060008190555050565b60005481565b600081836100ce91906101d7565b905092915050565b600080fd5b6000819050919050565b6100ee816100db565b81146100f957600080fd5b50565b60008135905061010b816100e5565b92915050565b600060208284031215610127576101266100d6565b5b6000610135848285016100fc565b91505092915050565b610147816100db565b82525050565b6000602082019050610162600083018461013e565b92915050565b6000806040838503121561017f5761017e6100d6565b5b600061018d858286016100fc565b925050602061019e858286016100fc565b9150509250929050565b7f4e487b7100000000000000000000000000000000000000000000000000000000600052601160045260246000fd5b60006101e2826100db565b91506101ed836100db565b92508282026101fb816100db565b91508282048414831517610212576102116101a8565b5b509291505056fea2646970667358221220fee4f09570debc5242e3518525bc97264198cb1e36904a46bcfaf9e512c8110664736f6c63430008130033",
  "immutableReferences": {},
  "source": "// SPDX-License-Identifier: MIT\r\npragma solidity ^0.8.19;\r\n\r\ncontract MUL {\r\n  uint public b =15;\r\n  function mul(uint _a, uint _b) public pure returns(uint) {\r\n    return _a*_b;\r\n  }\r\n\r\n  function setB(uint _b) public{\r\n    b = _b;\r\n  }\r\n}\r\n\r\ncontract DIV {\r\n  function div(uint _a, uint _b) public pure returns(uint) {\r\n    return _a/_b;\r\n  }\r\n\r\n}\r\n",
  "sourcePath": "C:\\Users\\g9h22\\OneDrive\\ \\class\\LikeLion\\0608\\contracts\\MD.sol",
  "compiler": {
    "name": "solc",
    "version": "0.8.19+commit.7dd6d404.Emscripten.clang"
  },
  "schemaVersion": "3.4.14",
  "updatedAt": "2023-06-20T13:41:38.730Z",
  "devdoc": {
    "kind": "dev",
    "methods": {},
    "version": 1
  },
  "userdoc": {
    "kind": "user",
    "methods": {},
    "version": 1
  }
}